:100000000C9434000C9446000C9446000C9446006A
:100010000C9446000C9446000C9446000C94460048
:100020000C9446000C9446000C9446000C94460038
:100030000C9446000C9446000C9446000C94460028
:100040000C9448000C9446000C9446000C94460016
:100050000C9446000C9446000C9446000C94460008
:100060000C9446000C94460011241FBECFEFD8E03C
:10007000DEBFCDBF21E0A0E0B1E001C01D92A23003
:10008000B207E1F70E9478000C9481000C94000004
:100090001F920F920FB60F9211248F93809101013E
:1000A0008150809301018091010181110CC089E18F
:1000B000809301012D9B04C085B18F7D85B903C05C
:1000C00085B1806285B98F910F900FBE0F901F9000
:1000D000189580E284B985B1806285B9089514BC11
:1000E00085B385BB81E080936E0085E085BD089572
:1000F0008FE0809301010E9469000E946F00789454
:06010000FFCFF894FFCFD1
:00000001FF
